:100FBA00000000010002000300040005000600070B
:0C0FCA000008000900E000D000B000703A
:0D0F6000040800030000011000020E000054
:03000B00020A8F57
:100A8F00C0E0C083C082C0D075D000C000C006C017
:100A9F0007C28C758A18758CFCD28C74082510F8D7
:100AAF00E625E024BAF582E4340FF583740193FF51
:100ABF00E51025E024CEF582E4340FF5837401931D
:100ACF00FEEF4EF5800510E510B404037510000518
:100ADF000DE50D7002050CE5087011E509700DE5C7
:100AEF000A7009E50B7005F50E750F01E50D64E849
:100AFF007004E50C64037032E50F450E702CF50C95
:100B0F00F50D1508E508B4FF217508091509E50964
:100B1F00B4FF17750909150AE50AB4FF0D750A091F
:100B2F00150BE50BB4FF03750B09D007D006D000EA
:090B3F00D0D0D082D083D0E03286
:0510BD00AE0EAF0F2292
:100F7F00C2AFE4F50CF50DC28C5389F043890175AE
:0E0F8F008A18758CFCC2B9D2A9D28CD2AF22BE
:0310C200020F7F9B
:10100A00536574204B65792E2E2E005265616479E2
:08101A003F20476F2E2E2E002F
:100F6D000116000117000111000212000002140009
:010F7D00640F
:10080000120F1B8F16E51670057516018055E5163B
:10081000B40105751602804BE516B4020575160382
:100820008041E516B404057516048037E516B40555
:1008300005751605802DE516B40605751606802388
:10084000E516B408057516078019E516B40905758F
:100850001608800FE516B40A057516098005E51619
:10086000E4F5167D0A7C007F027E00120F9DAF1614
:10087000120EC7120F1B8F17E51770057517018031
:1008800055E517B40105751702804BE517B402054D
:100890007517038041E517B404057517048037E523
:1008A00017B40505751705802DE517B406057517EE
:1008B000068023E517B408057517078019E517B4F6
:1008C0000905751708800FE517B40A057517098023
:1008D00005E517E4F5177D0B7C007F027E00120F03
:1008E0009DE51675F00AA42517FF120EC7E51675CB
:0D08F000F00AA47C002517FFEC35F0FE2275
:1009CB0085121A85131BAB15AA14D3ED9FEE648009
:1009DB00F8EC648098403CD3ED9BEA6480F8EC64BF
:1009EB0080985004AA04AB05EF24FFF582EE34FF88
:1009FB00F583E582B51B1AE583B51A15EF2401F5CE
:100A0B0082E43EF583E582B50307E583B5020280F8
:100A1B00498052C3ED9FEE6480F8EC64809850508F
:100A2B00C3ED951BE51A6480F8EC64809840048C48
:100A3B001A8D1BEF24FFF582EE34FFF583E582B5AB
:100A4B001B23E583B51A1EEF2401F582E43EF583E3
:100A5B00E582B50310E583B5020BE4F512F513F54A
:100A6B00147515C822851A12851B138A148B15222F
:100A7B00EDB5070FECB5060BE4F512F51375140184
:030A8B007515944A
:010A8E002245
:1008FD0012105112108E7D017C007F017E00120FAF
:10090D009D7BFF7A10790A120EF41208008E188F53
:10091D001912105112108E7D017C007F017E001284
:10092D000F9D7BFF7A107915120EF412103A80424A
:10093D001208008F11EFFD7C00AF19AE181209CB14
:10094D00E51564C845147005120FD68032E515B44F
:10095D009407E514B401028014AD15AC14AF13AEB9
:10096D0012120D9B1210BDEF64014E7005120FF0A7
:10097D00800DAD15AC14AF13AE12120D9B80B1E40A
:10098D00F521F522FBFAFDFC7F0AFE120C06E4F5BB
:10099D0021F522FBFA7D0AFCFFFE120C06E4F5217F
:1009AD00F5227B0AFAFDFCFFFE120C06752100757F
:0E09BD00220AE4FBFAFDFCFFFE120C0680C1CC
:100E010000E000E100E200E300E400E500E600E7C5
:100E110000E800E9000000D000D100D200D300D4E6
:100E210000D500D600D700D800D9000000B000B12D
:100E310000B200B300B400B500B600B700B800B905
:100E4100000000700071007200730074007500767C
:080E5100007700780079000031
:0C0BFA00E4F521F522FBFA7D03FCFFFE70
:100C06008E1B8F1C752500752632752300752432C0
:100C1600E52445236066E524152470021523E51CAA
:100C260025E0FFE51B33FE74012FF582740E3EF5B9
:100C360083740193F580ED25E0FFEC33FE74172FE6
:100C4600F582740E3EF583740193F580EB25E0FF83
:100C5600EA33FE742D2FF582740E3EF583740193EC
:100C6600F580E52225E0FFE52133FE74432FF5826A
:100C7600740E3EF583740193F5808094E52615265F
:0B0C860070021525E526452570802230
:10103A00120BFA120BFA120E94BF03030210C21219
:07104A000BFA75A08080EC99
:10102200EEEDEBE7DEDDDBD7BEBDBBB77E7D7B77CA
:08103200007F00BF00DF00EFAA
:0C109C00E4FFE4FE0EBE0AFC0FBF05F6E8
:0110A8002225
:100B480075A0F0E5A0B4F0FB1210BDEF64014E7083
:100B5800028041E4F51AD3E51A6480948350E9AF22
:100B68001AEF3395E0FEEF25E0FFEE33FE74322FE7
:100B7800F58274103EF583740193F5A0E4F521F530
:100B880022FBFA7D03FCFFFE120C061210BDEF6477
:100B9800014E7006120FF07F0F22AF1AEF3395E067
:100BA800FEEF25E0FFEE33FE74322FF58274103E1F
:100BB800F583AFA07401936F7002E493602F121055
:100BC8009CADA0AF1AEF3395E0FEEF25E0FFEE33C2
:100BD800FE74322FF58274103EF583EDFF3395E0F5
:100BE800FE7401936F7003E4936E600122051A028C
:020BF8000B5E92
:100D1D0075A0F0E5A0B4F0FBE4F51A1210BDEF6478
:100D2D00014E7006120FF07F0F22AF1AEF3395E0D0
:100D3D00FEEF25E0FFEE33FE74322FF58274103E88
:100D4D00F583E493FE740193F5A0ADA06D7001EEF3
:100D5D00602F12109CADA0AF1AEF3395E0FEEF257A
:100D6D00E0FFEE33FE74322FF58274103EF583ED05
:100D7D00FF3395E0FE7401936F7003E4936E600191
:0E0D8D0022051AD3E51A64809483408F808A71
:100E9400E4F521F522FBFA7D03FCFFFE120C061299
:100EA4000B48E4FEEEFD3395E0FC74222DF58274CC
:100EB400103CF583E493B50703AF06220EBE10E49D
:020EC4007F109D
:010EC6002209
:100F1B00120D1DE4FEEEFD3395E0FC74222DF582DF
:100F2B0074103CF583E493B50703AF06220EBE1095
:030F3B00E47F1040
:010F3E002290
:0910B4008F217B30DBFEDFFA2204
:0B10A90030313233343536373839002F
:10106600C2B6C2B5D2B78F907F147E001210B4C23A
:04107600B7D2B62215
:10107A00C2B6D2B5D2B78F907F147E001210B4C216
:04108A00B7D2B62201
:101051007F387E001210667F0C7E001210667F06BC
:051061007E0002106694
:0E108E007F017E001210667F027E0002106657
:100EF4008B1E8A1F8920AB1EAA1FA920120E7BFFFE
:100F040060143395E0FE12107A74012520F520E474
:070F1400351FF51F80E022EC
:100EC700EF75F00A120E59FE75F00AA4FDC3EF9DE7
:100ED700F51EEE9010A993FF3395E0FE12107AE508
:0D0EE7001E9010A993FF3395E0FE02107AD3
:100F9D008C1E8D1FEF64014E7006E51F24808004AA
:0D0FAD00E51F24C0FFE4351EFE1210662271
:100F3F007E005375636365737366756C205E5E0028
:100F4F002A426F6D622020426F6D622A203D203D44
:010F5F000091
:100D9B008E1A8F1B8C1C8D1D12105112108E7D0103
:100DAB007C007F017E00120F9DAF1B120EC77D04CE
:100DBB007C007F017E00120F9D7BFF7A0F793F1223
:100DCB000EF4E51D6464451C7D06701BFC7F01FE63
:100DDB00120F9D7F0A120EC77D077C007F017E00DC
:100DEB00120F9DE4FF800B7C007F017E00120F9D94
:060DFB00AF1D120EC7221D
:100FD60012105112108E7D017C007F017E00120FCF
:0A0FE6009D7BFF7A0F7941020EF4A3
:100FF00012105112108E7D017C007F017E00120FB5
:0A1000009D7BFF7A0F794F020EF47A
:03000000020C915E
:0C0C9100787FE4F6D8FD758126020CD8AF
:100E5900C2D530F707B2D563F0FF05F030E70CB221
:100E6900D5F4048463F0FF05F080018430D502F4E1
:020E7900042251
:100E7B00BB010689828A83E0225002E722BBFE0275
:090E8B00E32289828A83E49322A8
:100C9D000208FDE493A3F8E493A34003F68001F268
:100CAD0008DFF48029E493A3F85407240CC8C33358
:100CBD00C4540F4420C8834004F456800146F6DF27
:100CCD00E4800B0102040810204080900F60E47E48
:100CDD00019360BCA3FF543F30E509541FFEE4931C
:100CED00A360010ECF54C025E060A840B8E493A3E3
:100CFD00FAE493A3F8E493A3C8C582C8CAC583CA0E
:100D0D00F0A3C8C582C8CAC583CADFE9DEE780BEC5
:010F7E000072
:00000001FF
